:020000040800F2
:1000000010280020CD020008B3440008373F000844
:10001000B144000851210008E95400080000000024
:100020000000000000000000000000003502000891
:10003000532100080000000079020008B54F0008B5
:10004000E7020008E7020008E7020008E7020008EC
:10005000E7020008E7020008E7020008E7020008DC
:10006000E7020008E7020008E7020008E7020008CC
:10007000E7020008E7020008E7020008E7020008BC
:10008000E7020008E7020008E7020008E7020008AC
:10009000E7020008E7020008E7020008E70200089C
:1000A000E7020008E7020008E7020008E70200088C
:1000B000E7020008E702000831500008E7020008E4
:1000C000E7020008E7020008E7020008E70200086C
:1000D000E7020008DD540008E7020008E702000814
:1000E000E7020008E7020008E702000800F002F853
:1000F00000F090F80AA090E8000C82448344AAF132
:100100000107DA4501D100F085F8AFF2090EBAE82F
:100110000F0013F0010F18BFFB1A43F0010318473B
:100120002878000048780000103A24BF78C878C1C9
:10013000FAD8520724BF30C830C144BF04680C60ED
:10014000704700000023002400250026103A28BF35
:1001500078C1FBD8520728BF30C148BF0B60704739
:100160006E2900F04382702900F08D83662907F024
:10017000FE81652907F0FB81672907F0F881612975
:1001800007F0F78103681B0A28BF41F08001692945
:1001900000F0F081642900F0ED81752900F0EA811A
:1001A0006F2900F01A83782900F05983E92900F0BB
:1001B000B582E42900F0B282F52900F0AF82EF2980
:1001C00000F01783F82900F058830368DB0928BF83
:1001D00041F08001632901F08D80732901F0928044
:1001E000E32901F09D80F32901F0A28000207047EF
:1001F0001FB501F0EFF804000020002106F0FEFE1C
:10020000401C60600020002106F0E2FEE0601FBD9F
:1002100010B510BD01F0B0F81146FFF7E9FF05F089
:10022000D5F901F08DF903B4FFF7F2FF03BC01F03B
:10023000D5F90000224B19680868B0E8F00F80F388
:100240000988BFF36F8F4FF0000080F311884EF0E4
:100250000D0E70470000000006480068006880F33B
:10026000088862B661B6BFF34F8FBFF36F8F00DFB0
:1002700000BF00BF08ED00E0EFF30980BFF36F8F10
:100280000F4B1A6820E9F00F106008B54FF05000CE
:1002900080F31188BFF34F8FBFF36F8F06F014F90F
:1002A0004FF0000080F31188BDE808401968086825
:1002B000B0E8F00F80F30988BFF36F8F704700BF7D
:1002C00024000020EFF305807047000009488047B4
:1002D00009480047FEE7FEE7FEE7FEE7FEE7FEE728
:1002E000FEE7FEE7FEE7FEE704480549054A064B40
:1002F000704700002D500008ED000008102200207B
:100300001028002010240020102400207CB51D4659
:1003100016460C00009001D02044401E074B7B4441
:100320002A4669460190304600F079F905461CB12D
:100330000020694600F086F928467CBD2D030000A8
:1003400010B5431C02E010F8011B71B18107FAD10E
:100350004FF0013202C88C1A8C4314EAC211F9D052
:10036000C01A0A0603D0C01E10BDC01A10BD0A0470
:1003700001D0801E10BD0902FCD0401E10BD032A12
:1003800040F2308010F0030C00F0158011F8013BB2
:10039000BCF1020F624498BF11F801CB00F8013B99
:1003A00038BF11F8013BA2F1040298BF00F801CB5D
:1003B00038BF00F8013B11F0030300F03383083A23
:1003C000C0F0088051F8043B083A51F804CBA0E88B
:1003D0000810F5E7121D5CBF51F8043B40F8043BE0
:1003E000AFF30080D20724BF11F8013B11F801CB15
:1003F00048BF11F8012B24BF00F8013B00F801CBE6
:1004000048BF00F8012B704702F0FF0343EA0322C4
:1004100042EA024200F002B84FF000020429C0F0A4
:10042000128010F0030C00F01B80CCF1040CBCF126
:10043000020F18BF00F8012BA8BF20F8022BA1EB78
:100440000C0100F00DB85FEAC17C24BF00F8012B5D
:1004500000F8012B48BF00F8012B70474FF0000255
:1004600000B5134694469646203922BFA0E80C50AA
:10047000A0E80C50B1F12001BFF4F7AF090728BF85
:10048000A0E80C5048BF0CC05DF804EB890028BF01
:1004900040F8042B08BF704748BF20F8022B11F02A
:1004A000804F18BF00F8012B7047704770477047A6
:1004B00070B5044685690068C10601D5302600E0A4
:1004C0002026C00707D070BDD4E9012130469047EF
:1004D000206A401C20626D1EF6D570BD70B50446C2
:1004E00085690078C00707D170BDD4E901212020BB
:1004F0009047206A401C20626D1EF6D570BD0968C9
:100500004A0501D540B27047C905FCD500B2704715
:1005100009684A0501D5C0B27047C905FCD580B24B
:10052000704770B50C460546012A05D0287880062C
:1005300000D5EA69002302E0012305E05B1C934239
:1005400002D2E05C0028F9D1A869E618C01AA861B7
:10055000286A184428622846FFF7AAFF04E0D5E974
:10056000012114F8010B9047B442F8D32846FFF755
:10057000B5FF70BD2DE9F0410646002410687529CD
:10058000314616A510D0FFF7BAFF002802DA404224
:1005900013A507E031688A0701D512A502E04907D3
:1005A00004D511A5012401E0FFF7B2FF00210A22C2
:1005B00006F1240709E0B0FBF2FCB0FBF2F302FB0A
:1005C0001C00303078541846491C0028F3D12346CB
:1005D0002A463046BDE8F04100F09BBA000000001A
:1005E0002D0000002B0000002000000011680268B0
:1005F000006A530501D508700AE0D30501D50880CB
:1006000006E0130603D5C217C1E9000200E0086046
:100610000120704701694A1C02610878704700B5E3
:100620008FB0CDE901310021059105497944CDE92B
:1006300003101146684600F031F90FB000BD00000C
:10064000E5FFFFFF0A6802F8010B0A607047D1E975
:1006500000239A4202D2531C0B60107070470000B6
:100660002DE9FF5F15468A460446DFF8AC80F84462
:100670000027D8E900103E46CDE9001010E03AF816
:1006800016106A4602A800F057FE411C07D02178D8
:10069000890603D5E269391891420DD80744761CC2
:1006A0002078800602D5E069B84205DDAE42E6DB7F
:1006B0003AF816000028E2D1A069C01BA0612046CC
:1006C000FFF7F6FED8E90010CDE90010002017E092
:1006D0003AF818106A4602A800F02EFEB0F1FF3F6B
:1006E00081460BD000250DF1080B05E0D4E901216E
:1006F0001BF8050090476D1C4D45F7D308F101002C
:10070000B0428046E4DB206A384420622046FFF78E
:10071000E5FEBDE8FF9F0000BE7100002DE9F0413D
:100720008046D21D22F007020025D2E90002F529F9
:1007300015A614D0011E72F1000106DA0023D0EBD9
:10074000030063EB020211A608E0D8F800108B0743
:1007500001D50FA602E0490701D50EA601251146D5
:10076000002408F1240704E000F08EF930323A55F5
:10077000641C50EA0102F7D12B463246214640461E
:10078000BDE8F04100F0C5B9000000002D000000F8
:100790002B0000002000000030B4002100F12404F0
:1007A00008E002F00705D208303542EA4372DB0860
:1007B0006554491C52EA0305F3D10468002310A2D2
:1007C000250707D5A40600D421B1C46901230DA2D1
:1007D000641EC46130BC00F09CB910B504462146CB
:1007E0001068FFF795FE02462046BDE81040002342
:1007F000D2E7D21D22F00701D1E90023CCE70000A7
:100800000000000030000000F0B40D46018809052A
:1008100002D5214C7C4402E01F4C7C440E34002164
:1008200000F1240608E002F00F071209E75D42EA32
:1008300003721B097754491C52EA0307F3D102786B
:100840000023120704D5702D06D009B102231134FC
:100850002246F0BC00F05DB901231034F8E770B512
:1008600004460D4621461068FFF752FE024629460F
:100870002046BDE870400023C6E7D21D22F00703E2
:10088000D3E90023C0E70368126843F02003036044
:100890000823C3610023B7E7207000002DE9F05F53
:1008A000894604464FF0000ADFF874B1FB44C0F8F3
:1008B00020A02046E1688847002874D0252806D06B
:1008C000D4E901219047206A401C2062F1E700260C
:1008D0005F462046E16888472028054607DB312D22
:1008E00005D2781910F8200C08B10643F1E7B007DB
:1008F00001D526F00406C4F81CA00027C4F818A0EF
:100900002A2D09D0284604F059FE38B304EB870895
:10091000303DC8F8185019E059F8041B204604EB84
:1009200087029161E1688847012F054618D1E06987
:10093000002820DA26F020061DE0D8F8180000EB89
:10094000800005EB40003038C8F818002046E16808
:100950008847054604F032FE0028EED1012F0AD068
:100960002E2D08D12046E16888477F1C0546022FBE
:1009700046F02006C4DBA069002803DA404246F0B6
:100980000106A061F00701D026F010066C2D0BD0F7
:10099000682D09D04C2D39D06A2D35D0742D35D025
:1009A0007A2D33D016E038E0E1682F46204688479C
:1009B000B842054609D16C2F26D04FF48060E1681B
:1009C000064320468847054604E06C2F1AD04FF4B2
:1009D000807006430DB3A5F14100192802D82035D7
:1009E00046F400664A462946204626604E46FFF7F2
:1009F000B7FB80B101280BD0F61D26F0070000F1EF
:100A0000080956E74020E4E78020D8E70020D6E731
:100A100006F104094DE7284652E7206ABDE8F09F39
:100A2000B06F000010B5203AC0F00B80B1E818504C
:100A3000203AA0E81850B1E81850A0E81850BFF4C8
:100A4000F5AF5FEA027C24BFB1E81850A0E8185067
:100A500044BF18C918C0BDE810405FEA827C24BFBB
:100A600051F8043B40F8043B08BF7047D20728BF49
:100A700031F8023B48BF11F8012B28BF20F8023B98
:100A800048BF00F8012B704730B5B0F10A024FEAB9
:100A9000900E71F100034EEA817EB0EB0E0061EB27
:100AA00091014FEA101E4EEA017E10EB0E0041EB61
:100AB00011114FEA102E4EEA016E10EB0E0041EBC1
:100AC00011214FEA104E4EEA014E10EB0E0041EBA1
:100AD0001141401841F100014FEAD00040EA417055
:100AE0004FEAD10110EB80054FEA810444EA90748B
:100AF00044EB01046D1944EB0404521BA3414FF075
:100B0000000348BF0A3200D530BD401C41F100014E
:100B100030BD2DE9F0470D4699469246044600F156
:100B200024080168880604D5E06921F010012160DD
:100B300000E00120A84201DD471B00E00027A16979
:100B40007A1902EB0900081AA0612078C00602D4C5
:100B50002046FFF7ADFC002608E0D4E901211AF891
:100B600006009047206A401C761C20624E45F4DB4C
:100B70002078C0060AD52046FFF79AFC06E0D4E9A3
:100B8000012130209047206A401C2062381EA7F1C6
:100B90000107F4DC07E0D4E9012118F805009047CB
:100BA000206A401C2062281EA5F10105F3DC2046C6
:100BB000FFF794FC2078000602D50220BDE8F087FC
:100BC0000120FBE770472DE9FF4F0C461E464FF012
:100BD000FF378BB0D2E90001DDF860800A908A46C9
:100BE000C1F30A5505B93D46002108464FF0000003
:100BF000BAF1000F00F4400005DA00EB80004FF47A
:100C0000400101EA50004FEA9059B9F1010F00DDAF
:100C1000B9460A9850EA4A000ED044F61050A5F2A0
:100C2000FF3545432F14B8F1000F1ED07542291E21
:100C30001EDDC9F100021CE0B8F1010F4FF0000009
:100C400001D0302103E0F24305E02154401CB042C2
:100C5000FBDB30460022002121540B99C1F80880AB
:100C6000C1E900200FB0BDE8F08FBD1B6D1CDEE7B1
:100C70004A4600DA694206A800F0F0FB06AB93E8AA
:100C8000070003AB83E8070050460A9900F0ADFC6B
:100C90008DE80700A0F500501F3800900398002D44
:100CA0000ADD42F21F014A460844002303A90390CB
:100CB000684600F016FF09E0A0F500504A461F38CC
:100CC000002303A90390684600F020FF8DE8070089
:100CD0000004000C03D04FF0FF30410800E0104644
:100CE000B8F1000F03D00022009215461EE0751ED9
:100CF00005D4FFF7C9FE303262556D1EF9D5B346F3
:100D00000122084302D000227F1C04E02078302812
:100D100001D100227F1E002A099784D01DE0112DE9
:100D200007DAFFF7B1FE303262556D1C50EA01025E
:100D3000F5D1084302D00098C8B10EE00021681E2A
:100D400005E0235C625C63542254401E491C8142CE
:100D5000F7DBAB46A81B401E0990002004F80B00EF
:100D60000B98099AC0F80880C0E9002B7AE7112691
:100D70004FF0000857E72DE9F04F88460446D21D92
:100D800022F0070191B0D1E90001CDE90A0104F098
:100D9000F1FB02460B98C00F01D02D2007E0206820
:100DA000810701D52B2002E0202101EAC000032A9F
:100DB000099001D0072A05DB03464146204600F092
:100DC0000DFB0BE12078800601D5E06900E00620EC
:100DD000B8F1650F814606D0B8F1660F18D0B8F1AA
:100DE000670F70D131E00020B9F1110F009001DBE5
:100DF000112301E009F101030AAA01A90CA8FFF7D8
:100E0000E2FEDDE90C70002609F10105834647E0AA
:100E100001204B4600904FF000470AAA01A90CA8F8
:100E2000FFF7D1FEDDE90DB00C995D46002610B943
:100E300009F101000D18B9EB050003D4C0F1FF362C
:100E400009F10105A5EB09002BE0B9F1010F01DA69
:100E50004FF001090020B9F1110F0090484601DD63
:100E6000112300E003460AAA01A90CA8FFF7ABFE74
:100E7000DDE90C704D4600268346207800070AD431
:100E8000AB4500DA5D4601A8012D04DD411911F8DA
:100E9000011C302907D04F4502DA17F1040F04DA9C
:100EA000012082460FE06D1EEEE7002F02DCED1BF5
:100EB0003E4403E0781CA84200DD7D1CB81B00F115
:100EC000010A4FF000472078000703D4AA4501DB50
:100ED0004FF0FF3A0021B7F1004F0DF143088DF8B4
:100EE000431024D002202B23002F01DA7F422D2330
:100EF0000A21021EA0F1010000DC5FB197FBF1FCAA
:100F000097FBF1F201FB1C7C17460CF1300C08F842
:100F100001CDEEE7A8F1010003702188090501D594
:100F2000452100E06521A0F1010800F8011C0998A5
:100F30000FA9A1EB0807FF1D00B10120411901EB2A
:100F4000EA70A1693844081A401EA0612078C006E2
:100F500002D42046FFF7ACFA099828B1D4E9012160
:100F60009047206A401C20622078C00622D5204687
:100F7000FFF79EFA1EE0002E04DBB34502DD01A858
:100F8000805D00E03020D4E901219047206A401CB8
:100F90002062761CAAF101005FEA000A0AD100F083
:100FA00019FAC0680168405CD4E901219047206AC1
:100FB000401C2062281EA5F10105DCDC07E0D4E915
:100FC000012118F8010B9047206A401C2062381E4E
:100FD000A7F10107F3DC2046FFF780FA032011B0E8
:100FE00041E600002DE9F04F04460D46D21D22F0E7
:100FF000070089B0D0E900974846394604F0BAFAAC
:101000000246F80F01D02D2307E02068810701D5A3
:101010002B2302E0202101EAC0038DF820300BB120
:10102000012000E00020032A824601D0072A04DBC9
:101030002946204600F0D2F93FE12078800601D40D
:101040000D2500E0E569C7F30A560D2D49DA0021A8
:101050004FEA175B08464FF00000002F00F44000F5
:1010600007DA00EB80004FF4400100EBD07001EA9A
:1010700060008115012901DD4FF0FF3100224FEAA8
:10108000850CBCF1180F06D31346ACF118004FF0D5
:101090008052C24003E04FF4801323FA0CF30CF1AA
:1010A0000C0CBCF1200F04D3ACF1200C09FA0CF0AD
:1010B00001E007FA0CF000294FF0004801DD18B9F3
:1010C0000FE00ED140450CD319EB02095F4121B965
:1010D000404502D19F4329EA0209BBEB175F00D0CC
:1010E000761C2088000502D57B48784402E07A48C7
:1010F0007844193808AA302302F80A30037C0AF130
:101100000101002E0AF1020A53546A4602DC4FF034
:10111000300101E04FF031014FF001088DF800106F
:1011200002D0A6F2FF3603E059EA470100D06B4E29
:10113000002D02DC2178090704D54FF002082E218A
:101140008DF80110C44600210BE0C7F303433F01B3
:10115000C35C491C6D1E02F80830052908F101081E
:1011600001DA002DF1DC00210CE000EB1973491CC1
:101170001B786D1E082902F808304FEA091908F19A
:10118000010801DA002DF0DC21688B0602D516E09B
:10119000A8F10108E04505DD02EB080313F8013C66
:1011A000302BF5D0B8F1000F09DD02EB080313F87E
:1011B000013C2E2B03D1090701D4A8F10108002D11
:1011C00005DD3E2102F808106D1E08F10108407C83
:1011D000002E02F8080008F1010804DA2D207642FA
:1011E00002F8080002E02B2002F808000A214FF460
:1011F0007A70864208F101080BDB96FBF0F330337E
:1012000002F8083096FBF0F308F1010800FB1366C2
:1012100001E0642E0CDB642096FBF0F3303302F81F
:10122000083096FBF0F308F1010800FB136601E0BB
:101230000A2E06DB96FBF1F0303002F8080008F1C8
:10124000010896FBF1F001FB1060303002F8080055
:10125000A16908F1010808EB050202EB0A00081A6F
:10126000A0612078C00602D42046FFF721F9216A48
:1012700008AE01EB0A00206204E0D4E9012116F86F
:10128000010B9047BAF1010AF7D22078C00602D5C7
:101290002046FFF70DF96E4609E016F8010B3E28CF
:1012A0000FD0D4E901219047206A401C2062B8F198
:1012B0000108F2D22046FFF711F909B00320BDE87A
:1012C000F08F206A2844206203E0D4E90121302015
:1012D00090476D1EEBD3F8E79667000002FCFFFF16
:1012E00010B5436913B1AFF3008001E0FFF719F9BE
:1012F000012010BD127800F124010A7000224A700A
:101300000122EDE711684FF0FF32E9E710B54369BC
:1013100013B1AFF3008001E0FFF7A2F9012010BD87
:10132000128800F1240182840022C2840122EDE7A8
:1013300011684FF0FF32E9E770B516460C460546D6
:1013400000F040F8036893F80101012806D0FF2C53
:101350000FD8185D68B101202C7070BDD3F807015B
:101360003246214603F2071303442846BDE8704085
:1013700018474FF0FF3070BD754600F0EBF8AE46F1
:1013800005006946534620F00700854618B020B591
:10139000FEF7AAFFBDE820404FF000064FF000071F
:1013A0004FF000084FF0000B21F00701AC46ACE80D
:1013B000C009ACE8C009ACE8C009ACE8C0098D467A
:1013C0007047000010B500F005F8001D10BD00BF0B
:1013D0002D5C000000487047D02100202DE9F0412D
:1013E0001F46044603260168072A01F4006004DB57
:1013F00008B116A505E016A503E008B115A500E0A3
:1014000015A521F010002060A069C01EA0610FB1D9
:10141000401EA0612046FFF74BF84FB1D4E90121EF
:1014200038469047206A401C2062C01C206206E0BB
:10143000206AFAE7D4E9012115F8010B9047761EDE
:10144000F8D22046FFF74AF8BDE8F0814E414E0041
:101450006E616E00494E4600696E66002DE9F047E8
:10146000814616468AB0354878440DC88DE80D008F
:1014700032487844801C03AC0DC884E80D0041F666
:101480009B300844372190FBF1F290FBF1F5A5F178
:10149000800501FB12041B3C02D56442012000E0E0
:1014A0000020DFF898A080460027FA44AAF1BE0A7F
:1014B0000EE0E0070AD03246684607EB47010123F9
:1014C0000AEB810100F022FB8DE8070064107F1C0D
:1014D000002CEED1194F7F44AE3F19E0E80715D03C
:1014E00007EB04100DF1180A90E80E008AE80E00D0
:1014F000C068F04201D1981908903246012306A92C
:1015000003A800F003FB03AB83E807006D10641C25
:10151000002DE3D14FF0010332466946B8F1000FC8
:1015200003A802D000F0DDFA01E000F0EFFAC9E90B
:101530000001C9F808200AB0BDE8F087A8640000DF
:1015400010B50446AFF300802046BDE81040FEF71A
:101550006ABE000000487047B02100204FF0013CF7
:1015600050F8042B51F8043B9A4221D1A2EB0C0312
:10157000934313EACC1317D150F8042B51F8043BD2
:101580009A4215D1A2EB0C03934313EACC130BD16F
:1015900050F8042B51F8043B9A4209D1A2EB0C03FA
:1015A000934313EACC13DBD04FF00000704700BF29
:1015B000D01A01BAB1FA81F101F0180122FA01F052
:1015C000CB40C1F12001DBB2C0B2C01A2CFA01F34A
:1015D000D11A914311EAC311E6D17047014918208D
:1015E000ABBEFEE72600020070475FEA400C08BF72
:1015F00091F0000F4FEA8C234FEAC12243EA515188
:101600004FEA1C5018BF00F5F0404FEA300018BFF9
:1016100041F000415FEA6C5C00F02980BCF1FF3FC3
:1016200008BF40F080407047130C06BF12044FF013
:10163000100C4FF0000C130E04BF12020CF1080C3A
:10164000130F04BF12010CF1040C930F04BF92009E
:101650000CF1020CD30F04BF52000CF1010C114627
:101660004FF00002A0F11F00A0EB0C00704711F03A
:10167000004F08BF704731F000413FF4D5AF0B0C6D
:1016800006BF09044FF0100C4FF0000C0B0E04BF06
:1016900009020CF1080C0B0F04BF09010CF1040C3A
:1016A0008B0F04BF89000CF1020CCB0F04BF490063
:1016B0000CF1010CCCF12003A0EB0C0022FA03F397
:1016C00002FA0CF241EA030100F10100704720F038
:1016D0007F4C80EA030023F07F47ACEB070303F560
:1016E0007C5300F0004003F1FF032DE980494FEAED
:1016F000154B09B44FEA144325EA0B4E24EA03487C
:101700000FF2042606EB132749083E785FEA3202FF
:1017100003FB0667C7F5000707FB06F64FEA5437D9
:101720004FEAD64606F1020607FB066CCCF1005CD8
:101730004FEA1C472CEA074C07FB06F40CFB06F5A6
:1017400004EB15464FEA961634BF00204FF00040D8
:101750004FEAD13706FB07FC4FEA1C4C0CFB0BF79A
:10176000D21B03FB0CF761EB07010CFB0EF7B0EB90
:10177000074072EB17420CFB08F734BFA2EB07429D
:10178000B2EB074261EB17414FEA0C444FEA910775
:1017900006FB07FC4FEA1C4C0CFB0BF7B0EBC740F9
:1017A00072EB573203FB0CF734BFA2EBC742B2EB2C
:1017B000C74261EB57310CFB0EF7B0EBC70072EB81
:1017C00057720CFB08F734BFA2EBC702B2EBC7029B
:1017D00061EB5771039F4FEA816141EA921104EB7B
:1017E000CC044FEAD1374FEA826206FB07FC42EA9B
:1017F00090124FEA80604FEA1C4C0CFB0BF7D21B97
:1018000003FB0CF761EB07010CFB0EF7B0EB074095
:1018100072EB17420CFB08F734BFA2EB0742B2EBA6
:10182000074261EB17414FEA8C554FEA910704EBF1
:101830009C2406FB07FC4FEA1C4C0CFB0BF7B0EB9F
:10184000C74072EB573203FB0CF734BFA2EBC74221
:10185000B2EBC74261EB57310CFB0EF7B0EBC700A0
:1018600072EB57720CFB08F734BFA2EBC702B2EB66
:10187000C70261EB577115EB4C254FEA816141EAD4
:1018800092114FEA82624FEAD13742EA901206FB88
:1018900007FC44F100044FEA80604FEA1C4C0CFB4B
:1018A0000BF7D21B03FB0CF761EB07010CFB0EF7E8
:1018B000B0EB074072EB17420CFB08F734BFA2EB0A
:1018C0000742B2EB074261EB174115EB1C154FEADB
:1018D000813141EA92414FEA823242EA90424FEA34
:1018E00080304FEA0C7644F1000448EA03434EEAA4
:1018F0000B484FF0000EB2EB080C71EB030724BF4E
:10190000624639464EEB0E0E4FF0000B0018524166
:1019100049414BEB0B0BB2EB080C71EB03077BF16E
:10192000000B24BF624639464EEB0E0E4FF0000B03
:101930000018524149414BEB0B0BB2EB080C71EB19
:1019400003077BF1000B24BF624639464EEB0E0EB7
:1019500051EA020718BF46F0010616EB0E7655F164
:10196000000254F1000103D5BDE88901BDE80088FB
:10197000BDE88901BDE80048B619524141EB0101BB
:10198000A3F10103704780807F7E7D7C7B7A79782C
:10199000777676757473727171706F6E6E6D6C6C34
:1019A0006B6A6A69686867666665646463636261D6
:1019B0006160605F5F5E5E5D5D5C5C5B5B5A5A5957
:1019C00059585857575656555555545453535252C3
:1019D0005251515050504F4F4F4E4E4D4D4D4C4C1B
:1019E0004C4B4B4B4A4A4A49494948484847474764
:1019F00047464646454545444444444343434342A1
:101A0000424242414141002B9C4630D477002BD0CA
:101A10001CB54FEA370703B44FF010004FF0100128
:101A2000BAF1000F06D0BCF1000FDCBF40F0080097
:101A300040F008014FF000000FBCBDE810400BF172
:101A4000010BBBF1010F08BF5FEA170722BF12F1BC
:101A5000010211F101014FF0004143F1000300F0D8
:101A6000004043EA00007047F9D35708D0E746EA40
:101A7000064613F1400F4FEA16461FDD13F1200F03
:101A8000DFBF16430A46002120335B42BED0C3F1BC
:101A9000200746EA064602FA07F74FEA164646EAE4
:101AA0000706C3F1200722FA03F201FA07F721FA29
:101AB00003F14FF0000342EA0702A7E746EA0206F5
:101AC00046EA06464FEA164646EA0106BCBF46EA23
:101AD0000646360C4FF000034FF000024FF00001B5
:101AE00094E72DE9804C9A46934670B491E838000B
:101AF00007C831EA400C48BF34EA430C03D5FFF76E
:101B0000E6FDFFF780FFF0BCBDE8008C2DE9804CBE
:101B10009A46934670B491E8380007C810F0804F99
:101B200008BF13F0804F03D100F005F8FFF76BFFFB
:101B3000F0BCBDE8008C20F07F4780EA030023F072
:101B40007F4C07EB0C03A3F57C5300F00040A3F19E
:101B5000FE0392F0000F00F0B38095F0000F00F04C
:101B600077802DE901494FEA11404FEA144621EAF6
:101B7000004800FB06FC24EA064708FB06F607FBC4
:101B800008F800FB07F718EB06484CEB164C4FEA39
:101B9000124B18EB07484FEA15464CEB174022EA68
:101BA0000B4E0BFB06FC25EA06470EFB06F607FB71
:101BB0000EFE0BFB07F71EEB064E4CEB164C4FF0E0
:101BC00000061EEB074E4CEB174B18EB0B0840F1D1
:101BD000000018EB0E0B58EB000840F100008F1AC4
:101BE0004FF000013CBFC943661B14BFB5EB040CAA
:101BF00000213CBFC943F61B4FEA17444EEA8E0E44
:101C000027EA04454FEA1C4704FB07622CEA074C0D
:101C100005FB07F70CFB05F604FB0CFC16EB07466F
:101C200042EB174216EB0C4642EB1C421BEB06063E
:101C300058EB0202414146EA9E0601D5BDE8018902
:101C4000B619524141EB0101A3F10103BDE801893D
:101C50004FEA14454FEA114724EA054621EA074CAA
:101C600005FB07F406FB07F70CFB06F105FB0CFC74
:101C700011EB074144EB17444FEA124711EB0C41BB
:101C800044EB1C4422EA074C05FB07F206FB07F76E
:101C90000CFB06F605FB0CFC16EB074642EB174265
:101CA00016EB0C4642EB1C456A1854F1000148BF84
:101CB0007047B619524141EB0101A3F1010370478E
:101CC00095F0000F37D04FEA11424FEA144721EA4E
:101CD000024624EA074C02FB07F106FB07F70CFB60
:101CE00006F402FB0CFC14EB074441EB17414FEAEE
:101CF000154714EB0C4441EB1C4125EA074C02FB51
:101D000007F506FB07F70CFB06F602FB0CFC16EBCF
:101D1000074645EB174516EB0C4645EB1C421219DE
:101D200051F1000148BF7047B619524141EB010122
:101D3000A3F1010370474FEA14454FEA114724EA23
:101D4000054621EA074C05FB07F106FB07F70CFBEC
:101D500006F24FF0000605FB0CFC12EB074241EBCC
:101D6000174112EB0C4251EB1C4148BF70479218CF
:101D700041EB0101A3F1010370470023037041709F
:101D8000436002817047000010B50F4C2079217824
:101D9000884206D0628904210C48FFF7EEFF2078C4
:101DA00020710A4800F046F800280CD0074808497E
:101DB000007801EB00100FC802F090FDBDE8104064
:101DC000024800F007B810BDA4000020741F0020D6
:101DD0002877000801784278491CB1FBF2F302FB36
:101DE000131101707047000010B50F4C6079217815
:101DF000884206D0628904210C48FFF7BEFF207894
:101E000060710A4800F016F800280CD0074808490D
:101E1000007801EB00100FC802F060FDBDE8104033
:101E20000248FFF7D7BF10BDA4000020801F00208C
:101E30006877000810B5044603F007FC6168228942
:101E4000411A914202D36060012010BD002010BDF4
:101E500010B5144C60782178884206D02289F02190
:101E60001148FFF78AFF207860700F48FFF7E2FF04
:101E7000002815D00C480078782801D21E3002E0E6
:101E8000A0F20D104042C0B205F012FA03461A4605
:101E9000114602F023FDBDE810400348FFF79ABF4A
:101EA00010BD0000A40000208C1F002010B5124CB3
:101EB000A0792178884206D02289F0210F48FFF7C7
:101EC0005CFF2078A0710D48FFF7B4FF002812D006
:101ED0000A480078782801D21E3002E0A0F20D10E6
:101EE0004042C0B205F0E4F902F0E0FCBDE8104069
:101EF0000248FFF76FBF10BDA4000020981F00200C
:101F000010B50F4CA0782178884206D0628908214C
:101F10000C48FFF732FF2078A0700A48FFF78AFFCD
:101F200000280CD007480849007801EB00100FC8C2
:101F300002F0D4FCBDE810400248FFF74BBF10BDD3
:101F4000A40000205C1F00202876000810B50F4C6C
:101F5000E0782178884206D0628908210C48FFF792
:101F60000CFF2078E0700A48FFF764FF00280CD0CF
:101F700007480849007801EB00100FC802F0AEFCDA
:101F8000BDE810400248FFF725BF10BDA4000020A7
:101F9000681F0020A8760008024803461A4611462A
:101FA00002F09CBC0000A041024A034813460146CF
:101FB00002F094BC000020430000A041024A034804
:101FC0001346014602F08ABC0000A0410000B44262
:101FD000024803461A46114602F080BC0000B44293
:101FE00008B57920094C8DF800000020207000F021
:101FF000CFFA00F57A7060600121684600F094F82D
:10200000142003F015FB00F037F80000B4000020A6
:1020100010B5134C114A2178525C82420FD1491CF1
:10202000217000F0B5FA00F57A706060207804281D
:1020300003D300202070022010BD012010BD5A28BB
:1020400009D0002020700028F8D000F0A1FA00F597
:102050007A706060F1E70120F4E700002C78000856
:10206000B400002010B500F093FA02494968401A04
:10207000C00F10BDB40000201E4E356874681E48A5
:1020800001F0C8FC1C4801F011FD00211B4801F0C3
:102090007BFC0421194801F077FC0821174801F066
:1020A00073FC0C21154801F06FFC0021144801F06D
:1020B0006BFC00F05FFD00F0D9F872B600204FF025
:1020C000E021086148618861421E810001F1E02140
:1020D000C1F88021C1F88022401C0828F5D30948A6
:1020E000066085F30888BFF34F8FBFF36F8F62B62A
:1020F000A047FEE700F0FF1FF8050020680500205C
:10210000B005002008ED00E00248002141600170A8
:1021100070470000B400002040F20A210148FEF799
:102120007BB90000A41F002010B569B160B10A4658
:1021300001464FF47A73054801F0ACFE002804D044
:10214000022802D0032800D0012010BDF80500208D
:10215000FEE7704772B6FEE7084A002101EB410333
:1021600012F82330834204D101EB410002EB8000DE
:102170007047491C0B29F1D300207047A87700084D
:102180000148007870470000B000002010B590F8BA
:1021900021100022022905D00421816380F820202B
:1021A000012010BD01680B6823F00E030B6001686D
:1021B0000B6823F001030B6090F84030C46B0121E1
:1021C00001FA03F3636080F8211080F820201046A4
:1021D00010BD000010B590F821100024022903D092
:1021E0000421816301243DE001680A6822F00E02A7
:1021F0000A6001680A6822F001020A601A4A01684E
:10220000914201D1012121E0174A1432914201D1BA
:1022100010211BE0144A2832914201D1891515E0A2
:10222000114A3C32914201D189140FE00E4A5032DA
:10223000914202D14FF4803108E00B4A643291425E
:1022400002D14FF4801101E04FF08071064A083A44
:102250005160012180F82110002180F82010416B8D
:1022600001B18847204610BD08000240064810B55D
:102270004FF0FF31016100220261C160C26000F0D5
:102280007DFB002010BD0000001002402DE9F0434E
:1022900000233E4F0F2573E001229A400A406DD083
:1022A00023F00304E619D6F808809C074FEA147C53
:1022B00005FA0CF909EA0804DFF8D480404502D198
:1022C0004FF0000816E0DFF8CC80404502D14FF017
:1022D00001080FE0DFF8C080404502D14FF002084E
:1022E00008E0DFF8B880404502D14FF0030801E074
:1022F0004FF0040808FA0CF8A04522D1284CD4F875
:1023000000C02CEA020CC4F800C0241DD4F800C0A0
:102310002CEA020CC4F800C0214C0C34D4F800C0E4
:102320002CEA020CC4F800C0241FD4F800C02CEA28
:10233000020CC4F800C0D6F808C02CEA090CC6F894
:1023400008C0FF2A01D8064601E000F104064FEA62
:10235000830401D9A4F12004D6F800C005FA04F8DA
:102360002CEA080C4FF0040808FA04F84CEA080CB0
:10237000C6F800C0C46824EA0204C46003F1010383
:1023800031FA03F288D1BDE8F0830000000001407B
:1023900000080140000C0140001001400014014001
:1023A000000401402DE9F84FDFF8B8910024A9F1AD
:1023B000040B23460F2709F1040AABF1040EC9E010
:1023C0000125A5402A40AA427DD1674ED1F804C01C
:1023D000ACEB0608B44532D014DCBCF1030F3AD0A4
:1023E00009DCBCF1000F2AD0BCF1010F1CD0BCF1FC
:1023F000020F31D11DE0BCF1110F17D0BCF1120F4B
:102400002AD119E0B8F5881F19D006DCB8F5803F4D
:1024100015D0B8F5801F1FD111E0B8F5001F0ED000
:10242000B8F5041F18D10AE0CB6815E0CB681B1D76
:1024300012E0CB6808330FE0CB680C330CE08B68FC
:102440002BB1012B4FF0080303D0456104E00423B6
:1024500002E0056100E00023FF2A01D8064601E002
:1024600000F104064FEA840501D9A5F12005D6F84C
:10247000008007FA05FC28EA0C0803FA05F548EA8B
:102480000508C6F800804D68ED0062D5374DAE698D
:1024900046F00106AE61AD6924F0030605F00105C2
:1024A0000095334D06EB050CDCF80850A607360FF7
:1024B00007FA06F825EA0805DFF8B880404503D199
:1024C0004FF0000817E044E0DFF8AC80404502D14F
:1024D0004FF001080FE0DFF8A480404502D14FF033
:1024E000020808E0DFF89880404502D14FF0030869
:1024F00001E04FF0040808FA06F848EA0508CCF8AD
:1025000008804D68D9F80060ED024D4601D51643AC
:1025100000E096432E604D68DAF80060AD02554643
:1025200001D5164300E096432E604D68DBF800604D
:10253000AD035D4601D5164300E096432E604D681D
:10254000DEF80060ED03754601D5164300E09643C2
:102550002E60641C0D682A46E5407FF431AFBDE86B
:10256000F88F000008040140000011100010024024
:102570000000014000080140000C01400010014033
:10258000001401400AB1016170470904FBE7000033
:1025900001488068704700001400002070B50400F6
:1025A00025D094F83D00002520B984F83C50204601
:1025B00000F050F9242084F83D002068016821F0E3
:1025C000010101602068016841F400410160206858
:1025D000016821F40041016000F05AFB4D4A616836
:1025E000914201D84C4900E04C49884201D2012077
:1025F00070BD4B492368B0FBF1F15E6826F03F06E1
:102600000E435E606368934206D94FF49673594354
:102610004FF47A73B1FBF3F12368491C1E6A26F06C
:102620003F06314319626168914210D84900401E4B
:10263000B0FBF1F2521CC2F30B02042A01D20420B7
:1026400022E0B0FBF1F0401CC0F30B001CE0A268DC
:10265000F2B301EBC10303EB0116431EB3FBF6F328
:102660005B1C43F480431B0549D092B301EBC102CC
:1026700002EB0111401EB0FBF1F0401CC0F30B0057
:1026800040F4804040F400402168CA694CF6FF7372
:102690009A431043C861D4E90710014320680268D7
:1026A00022F0C00211430160D4E903010143206814
:1026B000826848F2FF339A4311438160D4E90501EF
:1026C00008432168CA6822F0FF021043C86001E095
:1026D0000EE016E02068016841F001010160256408
:1026E000202084F83D00256384F83E50002070BD12
:1026F00001EB4106431EB3FBF6F35B1CB3E701207D
:10270000C2E701EB4101401EB0FBF1F0401CC0F3F9
:102710000B00B7E7A086010080841E0000093D0081
:1027200040420F002DE9FF4F83B09A46DDE9119733
:1027300093460446DDF84080FFF72AFF054694F8EB
:102740003D0020287FD119230122404920460095D1
:1027500001F08AFC002876D194F83C00012872D060
:10276000012084F83C0020680168C90703D1016892
:1027700041F0010101602068016821F400610160FD
:10278000212084F83D00402084F83E000026266485
:10279000C4F82480A4F82A90608D20852C48E0623B
:1027A000CDE9007553465A462046049901F0DCFBFA
:1027B00070B930E02A463946204601F0FBFC58B19A
:1027C000206C042804D12068016841F40071016084
:1027D000012007B0BDE8F08F606A216800780861C9
:1027E000606A401C6062218D491E89B22185628D1C
:1027F000521E628522685369DB435B070BD469B1C3
:1028000000781061606A401C6062208D401E208547
:10281000608D401E6085208D0028CBD12A46394628
:10282000204601F0F5FB0028CAD154F83D0B0168A1
:1028300041F400710160202004F81E09E6776677F4
:102840000020C6E7FFE70220C3E7000002001000F7
:102850000000FFFF10B586B00021009101910291A8
:10286000039100680F4988421AD10F4CA06940F0CB
:102870000800A061A069694600F008000490C0202B
:10288000009012200190032003900848FFF78AFD72
:10289000E06940F40010E061E06900F40010049089
:1028A00006B010BD0054004000100240000C014072
:1028B000024881680278114481607047140000204A
:1028C000074810B5016841F010010160032000F0D5
:1028D000A9F80F2000F006F800F052F8002010BD13
:1028E0000020024030B505461F4887B0C16941F05D
:1028F0000401C161C06906A900F00400009001A8AC
:1029000000F0A6F90498B0B100F0C2F940001749F0
:10291000174AB0FBF1F11748491E0260416040F2CE
:10292000E7320021C0E903218160816100F0F0FD00
:10293000040003D015E000F0ABF9E8E70D4800F023
:1029400015FE04000DD11E2000F03EF8102D07D218
:10295000002229461E2000F045F80748056000E0E7
:10296000012407B0204630BD0010024040420F0055
:1029700000080040400600201800002070470000BA
:102980000F4808B5816941F001018161816901F059
:1029900001010091C16941F08051C161C06900220B
:1029A00000F0805000900F21901E00F01BF80548A9
:1029B000416821F0E06141F00071416008BD000014
:1029C0000010024000000140002809DB00F01F0257
:1029D000012191404009800000F1E020C0F8001181
:1029E00070470000F0B40E4B1B680C46C3F3022383
:1029F000C3F10705042D00D90425191D072901D2AB
:102A0000002300E0DB1E012606FA05F1491E2140E5
:102A100099409E40761E16403143F0BC02F0BEBD88
:102A20000CED00E0064900F0070208684FF6FF03CE
:102A3000184040EA0220034A104308607047000033
:102A40000CED00E00000FA052DE9F0470F46050007
:102A500061D0434E306800F00700B84209D23068B8
:102A600020F0070038433060306800F00700B842BB
:102A700051D128683B4C810712D5400703D56068C7
:102A800040F4E06060602878000703D5606840F497
:102A9000605060606068A96820F0F00008436060E2
:102AA0002878C00728D06868012810D0216802283B
:102AB00010D0890700292EDA616821F00301014353
:102AC0006160FFF765FD804641F288390DE02168BD
:102AD0008903EFE78901EDE7FFF75AFDA0EB080155
:102AE000494502D90320BDE8F0876068696800F0B5
:102AF0000C00B0EB810FEFD1306800F00700B84256
:102B00000BD9306820F0070038433060306800F09F
:102B10000700B84201D00120E5E72878400705D535
:102B20006068E96820F4E060084360602878000786
:102B300006D56068296920F4605040EAC1006060F1
:102B400000F0C6F86168084AC1F30311515CC8403F
:102B50000649086006480068FFF7C4FE0020C2E787
:102B600000200240001002400E76000820000020E5
:102B7000180000202DE9F041FFF70AFD304C054612
:102B8000206840F00100206005E000BFFFF700FD75
:102B9000401B022843D820688007F7D5206820F022
:102BA000F80040F080002060FFF7F2FC00250646A8
:102BB000656041F2883704E0FFF7EAFC801BB84209
:102BC0002DD8606810F00C0FF6D11F491D48086021
:102BD0001E480068FFF786FE10B10120BDE8F081B5
:102BE000FFF7D6FC0646206820F08070206004E0E5
:102BF000FFF7CEFC801B022811D820688001F7D493
:102C00006560FFF7C5FC0646206820F410202060B0
:102C100007E000BFFFF7BCFC801B642801D903203C
:102C2000DCE720688003F5D4206820F48020206051
:102C3000606A40F080706062A5600020CEE700000E
:102C40000010024000127A0020000020180000202E
:102C50000F2202600C4A536803F003034360536879
:102C600003F0F0038360536803F4E063C3605268C9
:102C70004FF4E06303EAD20202610448006800F006
:102C8000070008607047000000100240002002406A
:102C90000448054900684968044AC1F30221515CAF
:102CA000C840704720000020001002401E76000837
:102CB0000448054900684968044AC1F3C221515CCF
:102CC000C840704720000020001002401E76000817
:102CD0000E4A51680E4801F00C03042B11D0082B4A
:102CE0000FD10C48C1F38343C903C05C0AD55168B6
:102CF000084AC1F34041921E515C054A5043B0FB63
:102D0000F1F070470449484370470000001002404A
:102D100000127A00FE75000800093D002DE9F84F09
:102D2000040070D02078C04DC00749D06868C0F357
:102D30008100012807D06868C0F38100022809D10A
:102D40006868C00306D52868800339D56068002804
:102D5000E7D035E06068B0F5803F0BD010B1B0F53A
:102D6000A02F11D0286820F480302860286820F433
:102D7000802002E0286840F480302860606890B1CC
:102D8000FFF706FC06460AE0286840F48020286029
:102D9000F0E700BFFFF7FCFB801B642873D82868AE
:102DA0008003F7D50CE0FFF7F3FB064605E000BF14
:102DB000FFF7EEFB801B6428F0D828688003F7D467
:102DC00020789A4E80074FF001094FF0000839D55E
:102DD000686810F00C0F07D06868C0F38100022803
:102DE00009D16868C00306D42868800714D5206913
:102DF000012808D110E02069B0B1C6F80090FFF7B3
:102E0000C7FB074605E00AE1FFF7C2FBC01B02282B
:102E1000C4D828688007F7D52868616920F0F800D1
:102E200040EAC10028600DE0C6F80080FFF7B0FB63
:102E3000074604E0FFF7ACFBC01B022823D8286834
:102E40008007F7D4207800072CD57948A169D9B13B
:102E5000C0F80090FFF79CFB074604E0FFF798FBE3
:102E6000C01B02280FD8686A8007F7D571484FF455
:102E7000FA510068B0FBF1F0009000BF0098411ECD
:102E80000091FAD20EE080E0C0F80080FFF780FBEE
:102E9000074604E0FFF77CFBC01B022875D8686A70
:102EA0008007F7D42078400760D5E8690027C00084
:102EB00008D4E86940F08050E861E869012700F033
:102EC000805000905C480168C90513D401688346AE
:102ED00041F480710160FFF75BFB824606E000BFB2
:102EE000FFF756FBA0EB0A0064284ED8DBF8000081
:102EF000C005F5D5E06801280AD008B1052813D02F
:102F0000286A20F001002862286A20F0040002E00C
:102F1000286A40F001002862E06841F2883B98B1DD
:102F2000FFF736FB82460BE0286A40F00400286277
:102F3000EEE700BFFFF72CFBA0EB0A0159455AD87A
:102F4000286A8007F6D50CE0FFF722FB824605E0F1
:102F5000FFF71EFBA0EB0A0159454CD8286A8007F1
:102F6000F6D41FB1E86920F08050E861E06988B3C9
:102F70006968C1F38101022944D00228C6F8608043
:102F800004D0FFF705FB044638E034E0FFF700FB10
:102F9000074604E0FFF7FCFAC01B02282BD828687C
:102FA0008001F7D4206AB0F5803F05D16868A16838
:102FB00020F4003008436860D4E9080108436968D8
:102FC00021F4741108436860C6F86090FFF7E0FAD6
:102FD000044606E025E000BFFFF7DAFA001B0228EE
:102FE00009D828688001F7D51BE000BFFFF7D0FAA9
:102FF000001B022802D90320BDE8F88F2868800151
:10300000F4D40EE00128F7D06868226A00F4803119
:10301000914204D1616A00F47010884201D001200D
:10302000EAE70020E8E7000000100240000042420A
:1030300080044242200000200070004070B504006F
:1030400009D0606A002540B125616561A56294F8E8
:10305000510040B10CE0012070BD6068B0F5827F86
:10306000F4D0E561F2E784F85050204600F040F8D3
:10307000022084F851002068016821F040010160BD
:10308000A088218900F4827001F404410843A189D9
:1030900001F400610843217C01F002010843217D15
:1030A00001F001010843218B01F400710843217FE5
:1030B00001F03801084394F8201001F08001084322
:1030C000218D01F40051084321680860A0690421A2
:1030D00001EA1040216848602068C16921F400615C
:1030E000C1616565012084F85100002070BD0000B9
:1030F00030B585B0002400940194029403940068D4
:103100001449884223D11448816941F48051816176
:10311000816901F480510491816941F00401816168
:1031200080690E4D00F004000490A0200090022061
:1031300001900320039069462846FFF733F94020A9
:10314000CDE90004694628460294FFF72BF905B043
:1031500030BD000000300140001002400008014076
:103160002DE9F84F044690F851001D4616460F46CB
:10317000012838D160684FF00408B0F5827F01D192
:10318000A06830B3FFF704FA8246002F75D0002EF6
:1031900073D094F85000012825D04FF0010984F82D
:1031A000509084F851804FF00008C4F85480A76311
:1031B000A687E687C4F83080A4F83480A4F8368067
:1031C000C4F84080C4F84480A068B0F5004F0CD02B
:1031D00015E084F85180009313460A46204600F01B
:1031E00069F8BDE8F88F0220FBE72068016821F04C
:1031F000400101602068016821F48041016020687D
:103200000168490603D4016841F040010160E068AB
:10321000C0B134E020688168C90709D0007BA16B88
:103220000870A06B401CA063E08F401EE08709E09F
:10323000FFF7AEF9A0EB0A00A84202D3681C01D048
:1032400032E085B3E08F0028E4D11BE0206881687C
:10325000C90709D0C068A16B0880A06B801CA0635F
:10326000E08F401EE0870AE0FFF792F9A0EB0A002A
:10327000A84203D3681C02D016E012E09DB1E08F93
:103280000028E3D152462946204601F0F1F908B161
:103290002020606584F8519084F85080606D00288B
:1032A0009FD001209DE7FFE784F8519084F850807B
:1032B000032096E72DE9FF4F81B01D469346044653
:1032C0004FF001090E9EFFF763F9074694F851008D
:1032D0006168012806D0B1F5827F3CD1A168C9BBE5
:1032E000042838D10298002871D0BBF1000FFBD020
:1032F000002DF9D094F8500001282CD04FF0010A8D
:1033000084F850A094F85100042802D0052084F8D5
:1033100051004FF00008C4F85480C4F838B0E58775
:10332000A58702992163E586A586C4F84080C4F884
:10333000448020680168490603D4016841F04001D7
:103340000160E068B0F5006F606808D0F0B3012D4F
:1033500049D081E0FFE7022005B0BDE8F08F08B159
:10336000012D39D1206B21680088C860206B801C3A
:103370002063E08E401EE0862EE020688168890789
:103380000FD5E18E69B1B9F1010F0AD1216B09881E
:10339000C160206B801C2063E08E401EE0864FF0F1
:1033A000000920688168C9070CD0E18F51B1C0685D
:1033B000A16B0880A06B801CA063E08F401EE0879B
:1033C0004FF00109FFF7E4F8C01B01E00BE067E0F4
:1033D000B04201D3701C50D1E08E0028CDD1E08FD7
:1033E0000028CAD13EE0206B216800780873206B6A
:1033F000401C2063E08E401EE0862DE0206881683E
:1034000089070FD5E18E69B1B9F1010F0AD1216B9E
:1034100009780173206B401C2063E08E401EE0861B
:103420004FF0000920688168C9070CD0E18F51B1C5
:10343000C068A16B0870A06B401CA063E08F401EA9
:10344000E0874FF00109FFF7A3F8C01BB04202D399
:10345000701C01D011E086B1E08E0028CED1E08F43
:103460000028CBD13A463146204601F02FF950B121
:103470002020606584F8508012E084F851A084F820
:103480005080032068E7A06818B92068C168806888
:10349000009084F851A084F85080606D0028F1D02D
:1034A000012059E77047704770B590F83C20012A19
:1034B00026D0012480F83C40022280F83D20036899
:1034C0005A689D6822F070060A6832435A600D4BB4
:1034D00002689A4208D0B2F1804F05D00A4B9A4256
:1034E00002D00A4B9A4204D1496825F0800319435F
:1034F000916080F83D40002180F83C10084670BD86
:10350000022070BD002C0140000400400008004073
:1035100010B5040003D094F83D0010B107E001207D
:1035200010BD002084F83C00204600F01EF8022068
:1035300084F83D00211D206801F080FD012084F801
:10354000460084F83E0084F83F0084F8400084F888
:10355000410084F8420084F8430084F8440084F871
:10356000450084F83D00002010BD704790F83D10E4
:10357000012901D001207047022180F83D10016827
:10358000CA6842F00102CA6000680B49884208D04C
:10359000B0F1804F05D00949884202D008498842DD
:1035A00004D1816801F00701062903D0016841F0C8
:1035B0000101016000207047002C01400004004020
:1035C0000008004070472DE9F04104460068C668D5
:1035D00005694FF00007A90713D5B10711D5F91EEA
:1035E000016101202077206880698007204602D091
:1035F000FFF7E8FF04E000F0C5F8204600F074F99A
:103600002777680716D5700714D521686FF0040076
:103610000861022020772068806910F4407F2046EE
:1036200002D0FFF7CFFF04E000F0ACF8204600F036
:103630005BF92777280715D5300713D521686FF078
:1036400008000861042020772068C06980072046B0
:1036500002D0FFF7B7FF04E000F094F8204600F036
:1036600043F92777E80616D5F00614D521686FF0E0
:1036700010000861082020772068C06910F4407F9E
:10368000204602D0FFF79EFF04E000F07BF82046C2
:1036900000F02AF92777E80708D0F00706D021685C
:1036A0006FF001000861204600F0A6F9280608D551
:1036B000300606D521686FF0800008612046FFF7CC
:1036C000F1FE680608D5700606D521686FF0400047
:1036D0000861204600F09AF9A8060AD5B00608D578
:1036E00021686FF0200008612046BDE8F041FFF737
:1036F000DABEBDE8F081000000B585B00021009180
:10370000019102910391026819480221B2F1804FA0
:103710001DD0184B9A4218D1826942F0080282618A
:103720008069039100F0080004901020CDE90001A9
:1037300069461148FEF736FE1048416821F44061A1
:1037400041F0E06141F40061416005B000BD826973
:1037500042F0040282618069039100F00400049049
:103760000F20CDE9000169460548FEF71BFEECE796
:103770000010024000040040000C01400000014025
:1037800000080140704770B5044690F83C000026E0
:103790000D4601280FD0012084F83C006AB1042AAC
:1037A0001DD0082A2FD00C2A3FD00126002084F8F3
:1037B0003C00304670BD022070BD206801F088FCDE
:1037C0002068816941F0080181612068816921F0E8
:1037D00004018161206881692A69114311E0206830
:1037E00001F09EFC2068816941F4006181612068DC
:1037F000816921F480618161206881692A6941EAD7
:1038000002218161D2E7206801F0B6FC2068C1691D
:1038100041F00801C1612068C16921F00401C16162
:103820002068C1692A69114311E0206801F0D0FCC9
:103830002068C16941F40061C1612068C16921F457
:103840008061C1612068C1692A6941EA0221C161C0
:10385000ACE710B5040003D094F83D0010B107E0C8
:10386000012010BD002084F83C00204600F01EF826
:10387000022084F83D00211D206801F0DFFB0120BB
:1038800084F8460084F83E0084F83F0084F8400045
:1038900084F8410084F8420084F8430084F844002E
:1038A00084F8450084F83D00002010BD08B501688B
:1038B0000B48B1F1804F0BD00A4A914207D1C16940
:1038C00041F00201C161C06900F00200009008BD32
:1038D000C16941F00101C161C06900F00100F5E773
:1038E00000100240000400407047000010B504467C
:1038F000022249B104290ED0082913D094F84100BE
:10390000012816D0012010BD94F83E000128F9D1FD
:1039100084F83E200FE094F83F000128F2D184F8AB
:103920003F2008E094F840000128EBD184F84020C3
:1039300001E084F841200122206801F0BBFB0F491F
:103940002068884203D1426C42F4004242642068FD
:10395000884208D0B0F1804F05D00949884202D092
:103960000849884204D1816801F00701062903D083
:10397000016841F001010160002010BD002C0140F0
:10398000000400400008004030B504460D460068C1
:10399000002201F08FFB174B41F2111120688A10B1
:1039A000984209D1036A0B4206D1036A134203D13C
:1039B000436C23F4004343642068036A0B4206D13E
:1039C000016A114203D1016821F001010160012067
:1039D0003DB1042D08D0082D09D084F84100002005
:1039E00030BD84F83E00FAE784F83F00F7E784F83A
:1039F0004000F4E7002C014000680349884201D1EF
:103A0000FEF756BF7047000000080040704770473F
:103A10007047000070B5044620680C3050E8001F65
:103A200021F4907140E80012002AF5D1206814308A
:103A300050E8001F21F0010140E80012002AF5D1F2
:103A4000206B012809D120680C3050E8001F21F0BC
:103A5000100140E80012002AF5D1206840694FF0BB
:103A6000200241064FF0000015D52168143151E8BD
:103A7000003F23F0400341E80035002DF5D1E16B14
:103A800049B109484863E06BFEF7A4FB50B1E06B15
:103A9000416B884706E0E08584F842202063204699
:103AA000FFF7B6FF002070BD2552000810B50400D6
:103AB00015D0242084F841002068C16821F4005109
:103AC000C160204600F076F90020606484F841006F
:103AD00084F8420044F8300F6060207410BD01206B
:103AE00010BD7047F8B5016804460868CA684B699C
:103AF00010F00F0F4FF0000559D003F0010602F44B
:103B00009077374365D0C10705D0D10503D5616CE7
:103B100041F001016164410705D5D90703D0616C0B
:103B200041F002016164810705D5D90703D0616CBA
:103B300041F004016164010707D502F0200131431F
:103B400003D0616C41F008016164616C00293AD0D6
:103B5000800604D5900602D5204601F0ADFB206812
:103B60004069616CC0F38010090700D460B320463F
:103B700001F07BFB20684069400621D520681430A5
:103B800050E8001F21F0400140E80012002AF5D162
:103B9000E06BA8B16D494163E06BFEF71BFB0028A9
:103BA00011D0E06B416B01B0BDE8F04008478306DF
:103BB0000FD593060DD52046BDE8F84001F07CBB3B
:103BC0002046FFF78EFFF8BD2046FFF78AFF6564A9
:103BD000F8BD266B2023012E7CD1C6067AD5D606E9
:103BE00078D508684868009048694FF0020640069A
:103BF00040D5E16B086840680004000CE8D0A28D55
:103C00008242E5D9E085886920282DD020680C30D3
:103C100050E8001F21F4807140E80012002AF5D11D
:103C20002068143050E8001F21F0010140E8001224
:103C3000002AF5D12068143050E8001F21F040011F
:103C400040E80012002AF5D184F84230256320684C
:103C50000C3050E8001F21F0100140E80012002A4B
:103C6000F5D1E06BFEF792FA6663A08DE18D401A04
:103C700081B22AE0A08DE18D401A81B2E08D00284A
:103C8000A6D00029A4D022680C3252E8000F20F4FC
:103C9000907042E80007002FF5D12068143050E8FA
:103CA000002F22F0010240E80027002FF5D184F810
:103CB0004230256320680C3050E8002F22F01002BB
:103CC00040E80023002BF5D166632046FFF79FFEF6
:103CD000F8BDFFE705062BD5150629D594F8410058
:103CE0002128F5D1A068B0F5805F01D12069B0B17D
:103CF000206A411C2162216800784860E08C401EE7
:103D00000004000CE084E3D12068C16821F0800148
:103D1000C1602068C16841F04001C160D8E7206AF5
:103D20000088C0F308004860206A801C2062E5E734
:103D30004006CDD55006CBD5CA68204622F04002B9
:103D4000CA6084F8413000F0F5F8C1E71552000868
:103D500070B5040004D094F84100002510B106E0CD
:103D6000012070BD84F84050204600F039F824202E
:103D700084F841002068C16821F40051C1602046E8
:103D800001F0FCFA2068016921F49041016120688A
:103D9000416921F02A0141612068C16841F4005164
:103DA000C1606564202084F8410084F842006563A6
:103DB000002070BD00680749884209D10648816922
:103DC00021F4804181614FF4C0610448FEF75EBA7E
:103DD0007047000000380140001002400008014018
:103DE00030B585B0002400940194029403940068D7
:103DF000184988422CD11848816941F48041816179
:103E0000816901F480410491816941F0040181617B
:103E10008069124D00F0040004904FF4007000908F
:103E2000022001900320039069462846FEF7BAFA63
:103E30002815CDE90004694628460294FEF7B2FA37
:103E4000002205212520FEF7CDFD2520FEF7BCFD33
:103E500005B030BD003801400010024000080140AC
:103E600090F84230202B01D00220704721B11AB1C6
:103E70000023036301F0DEBA0120704700680349A4
:103E8000884202D102490120087070470038014081
:103E9000000000202DE9F843044690F841009846C0
:103EA00016460D46202802D00220BDE8F88385B1D1
:103EB0007EB100206064212084F84100FEF768FB99
:103EC000A6848146E684A0682027B0F5805F02D0F2
:103ED00003E00120E9E7206910B12E4600250EE03D
:103EE00000260CE08021204601F0BFFAA8B9C6B137
:103EF00016F8010B21684860E08C401EE084E08CDD
:103F00004B464FF00002CDF800800028EAD14FF078
:103F10004001204601F0A9FA40B184F84170032025
:103F2000C3E735F8020BC0F30800E3E784F84170FB
:103F30000020BAE77047FEE701684A69D24352059C
:103F40000FD46FF480624A61002140F8301F2022B4
:103F500042738173026942F004020261017301201D
:103F600070470020704700002DE9F84304460068C0
:103F70000D46DDE9089701689846164641F48071C0
:103F800001604B4600224FF001112046009700F0DF
:103F90006BF848B120680068C00502D54FF4007086
:103FA00020640320BDE8F883216805F0FE00086165
:103FB0003B464A461549204600F09EF888B92068DD
:103FC0004169806900903A464946204600F0F2F87F
:103FD00048B1206C042804D12068016841F40071C4
:103FE00001600120DEE7F5B2B8F1010F09D02168C8
:103FF000300A08613A464946204600F0DBF80028BE
:10400000E7D1206805610020CCE700000200010034
:1040100070B516460D4604461EE02046FFF78CFF9D
:1040200008B1012070BD681C16D0FEF7B1FA801BE4
:10403000A84200D885B920684069C04340070BD525
:10404000002044F8300F20216173A073216941F0F2
:10405000200121612073E4E720684069C0434007E4
:10406000DBD4002070BD00002DE9F04798461746CC
:104070000D460446C1F30746DDF820902AE000BF54
:10408000B8F1FF3F26D0FEF783FAA0EB09014145C6
:1040900002D8B8F1000F1DD12068012E16D080691A
:1040A00025EA00000004000C12D00020B84211D113
:1040B000002044F8300F20216173A073216941F082
:1040C0002001216120730120BDE8F0874069E7E706
:1040D0000120EBE72068012E0AD0806925EA000064
:1040E0000004000C06D00020B842C9D00020EBE745
:1040F0004069F3E70120F7E72DE9F04798461646B7
:104100000D4604464FF000094FF0200AC1F307475F
:1041100023E020684069C043400515D42068016849
:1041200041F40071016021686FF480604861C4F857
:10413000309084F83DA084F83E90216C41F0040159
:10414000216484F83C9021E0701C06D0FEF720FA30
:10415000A0EB0800B04203D816B1012F1FD021E018
:104160002068012F15D0806925EA00000004000CAA
:1041700018D000BF44F8309F84F80DA084F80E904A
:10418000216941F02001216184F80C900120BDE8F3
:10419000F087406925EA00000004000CEAD120689D
:1041A000406901E02068806925EA00000004000CF5
:1041B000AFD1ECE770B516460D4604461EE020462A
:1041C000FFF7BAFE08B1012070BD681C16D0FEF7DB
:1041D000DFF9801BA84200D885B920684069C04338
:1041E00000060BD5002044F8300F20216173A07326
:1041F000216941F0200121612073E4E720684069D2
:10420000C0430006DBD4002070BD000010B50E4A8C
:104210000121102001F080FA0C4C0B4A0021206192
:104220006C3A0B4801F0D8FA074A6060483A00211E
:10423000084801F0D1FA044AA060243A0021064857
:1042400001F0CAFAE06010BDE4750008000000202B
:104250005D4B000801490008DD4B000810B586B031
:10426000002000900190029003901A48816941F06B
:1042700010018161816901F010010491816941F0AF
:1042800020018161816901F020010491816941F07F
:1042900004018161816901F004010491816941F0A7
:1042A0000801816180690C4C00F008000490012233
:1042B00010212046FEF766F910200121CDE900010A
:1042C0000320CDE9021069462046FEF76BF806B0E0
:1042D00010BD000000100240000801400D4810B55C
:1042E0000B4901600C49416000214FF4804281601C
:1042F000C0E9031241618161C1610162FEF74EF9BB
:10430000002803D0BDE81040FDF724BF10BD000019
:1043100000540040BC040020801A0600104810B56C
:104320000E4901604FF48271416000218160C160DB
:104330004FF400720161C0E905121022C0E90721A3
:10434000416281620A21C162FEF778FE002803D033
:10435000BDE81040FDF7FEBE10BD0000003001407A
:104360001005002010B58AB0002407941C2168466F
:104370000894FCF773F822484FF080410160472110
:10438000C0E9011444F61F61C0E903148021816172
:10439000FFF75FFA08B1FDF7DDFE079407A918489B
:1043A0000894FFF781F808B1FDF7D4FE6020CDE94D
:1043B000000402940022694611480494FFF7E3F9CF
:1043C00008B1FDF7C7FE042269460D48FFF7DBF987
:1043D00008B1FDF7BFFE082269460948FFF7D3F987
:1043E00008B1FDF7B7FE0C2269460548FFF7CBF987
:1043F00008B1FDF7AFFE0248FFF77EF90AB010BD25
:104400006805002010B58AB0002407941C21684676
:104410000894FCF723F81748154901604721C0E9C3
:10442000011444F61F61C0E9031480218161FFF784
:1044300010FA08B1FDF78EFE079407A90D480894FD
:10444000FFF732F808B1FDF785FE6020CDE90004E2
:1044500002940022694607480494FFF794F908B1D2
:10446000FDF778FE0348FFF747F90AB010BD0000DA
:1044700000040040B00500200C4810B50A49016056
:104480004FF4E1314160002181600C22C160C0E93C
:1044900004128161C161FFF75BFC002803D0BDE815
:1044A0001040FDF757BE10BD00380140F805002050
:1044B000FEE7FEE7002000F01FB82DE9F047984620
:1044C0001746824600260C46DDF8209010E0214673
:1044D000504600F096F8554606E019F80600761C9E
:1044E00000F0B4F86D1CEDB2BD42F6D3641CE4B22A
:1044F0004445ECD3BDE8F08770B506465FF0000494
:1045000004F1B000C0B200F08FF8002000F08CF889
:10451000102000F089F80025304600F097F86D1C57
:10452000EDB2802DF8D3641CE4B2082CE8D370BD42
:1045300010B5AE2000F078F8812000F075F8FF206B
:1045400000F072F8A42000F06FF8A62000F06CF8DC
:104550002E2000F069F8262000F066F8002000F018
:1045600063F8002000F060F8032000F05DF80720F9
:1045700000F05AF8002000F057F8FF2000F054F83F
:10458000202000F051F8102000F04EF8B02000F08C
:104590004BF8002000F048F8102000F045F84020CB
:1045A00000F042F8A12000F03FF8A82000F03CF80D
:1045B0003F2000F039F8C82000F036F8D32000F092
:1045C00033F8002000F030F8DA2000F02DF8122047
:1045D00000F02AF8D92000F027F8222000F024F873
:1045E000DB2000F021F8202000F01EF88D2000F0E4
:1045F0001BF8142000F018F8BDE81040AF2000F0C0
:1046000013B810B50446B031C8B200F00DF8102050
:1046100040EA141000F008F804F00F00BDE8104064
:1046200040F00100AFF3008001B584B001214FF4E8
:10463000807204A88DE807000B460022782102480A
:10464000FEF770F805B000BDBC04002001B584B0D1
:1046500001214FF4807204A88DE807000B46402228
:1046600078210248FEF75EF805B000BDBC040020CA
:10467000F8B5044640684FF48273984217D1A06899
:104680004FF48065B0F5004F01D0A8420FD12068EB
:10469000066826F0400606606068984207D1A06868
:1046A000A84204D100920B460022012103E00092AF
:1046B0000B4600228021204600F022F8002804D07A
:1046C000606D40F0200060650320F8BDF8B5154628
:1046D0000E460B46009204460122022100F010F81B
:1046E00040B93346002280212046009500F008F8AA
:1046F000002804D0606D40F0200060650320F8BD04
:104700002DE9F8431E46914688460446089DFDF76C
:104710003FFF401B351AFDF73BFF07462548006861
:10472000C0F3CB30684338E0701C37D0FDF730FF62
:10473000C01BA84203D215B1009860B32CE02068DA
:10474000416821F0E00141606068B0F5827F0BD1E3
:10475000A068B0F5004F02D0B0F5806F04D120689A
:10476000016821F040010160A06AB0F5005F09D145
:104770002068016821F4005101602068016841F45B
:1047800000510160012084F85100002084F850009D
:104790000320BDE8F8830025401E00902068816852
:1047A00038EA010004D000214945BDD10020F0E7DE
:1047B0000121F9E7200000200146074808B50068FC
:1047C000002807D08DF800104FF47A730022694654
:1047D00000F0CEFF08BD00001000002010B5074912
:1047E00002F084FC064902F077FD064902F01CFC49
:1047F00002F03EFD04490968486310BD00003443DF
:104800000000FA440000FA436805002010B5094C86
:10481000214602F02DFE214602F068FC064902F016
:104820005BFD064902F000FC02F022FD0449096824
:10483000886310BD000034430000FA440000FA43CE
:104840006805002010B5074902F050FC064902F047
:1048500043FD064902F0E8FB02F00AFD044909683D
:10486000C86310BD000034430000FA440000FA435E
:104870006805002010B5094C214602F0F9FD2146DB
:1048800002F034FC064902F027FD064902F0CCFB99
:1048900002F0EEFC04490968086410BD00003443CE
:1048A0000000FA440000FA436805002010B50749EB
:1048B00002F01CFC064902F00FFD064902F0B4FBB1
:1048C00002F0D6FC04490968486310BD0000344377
:1048D0000000FA440000FA43B005002070B51C4601
:1048E00015460E46FFF77AFF3046FFF78FFF284642
:1048F000FFF7A8FF2046BDE87040FFF7BBBF0000F0
:104900002DE9F84F4FF0000A56465446FDF760FB7C
:104910004FF4FA7000F08CFE484FDFF82491494DB7
:10492000D04600231A466946386900F0C3FE0028C5
:104930003FD122469DF8001043A000F07EFC9DF878
:1049400000000B2820D0A04229D048A000F075FC20
:1049500085F80080FDF73CFB642000F069FE9DF8BF
:10496000004089F800402046FDF7F6FB002820D0E3
:10497000017A2970468900F068FE8246324629781D
:1049800043A000F05AFC14E04EA000F056FC85F85D
:104990000080FDF71DFB642000F04AFE1BE052A0E2
:1049A00000F04BFC2046FDF7D7FB10B100F04DFEA8
:1049B0008246002C3ED00B2C3CD086B100F045FE48
:1049C000A0EB0A00B0420AD352A000F036FC85F8F2
:1049D0000080FDF7FDFA002489F800802AE029789C
:1049E0000A2924D2DFE801F0171A1D2005080B0E52
:1049F0001114FDF785FA1DE0FDF7A8FA1AE0FDF79E
:104A0000C3F917E0FDF7F0F914E0FDF721FA11E022
:104A1000FDF74CFA0EE0FDF7D1FA0BE0FDF7C4FA12
:104A200008E0FDF7B9FA05E0FDF7D2FA02E042A08E
:104A300000F003FC0A2000F0FBFD72E700000020FC
:104A4000B0000020A40000205B414354494F4E5D5C
:104A500020476F7420636D643A2025642C206375B1
:104A60007272656E743A2025640D0A005B414354EE
:104A7000494F4E5D20537769746368696E6720748F
:104A80006F206E657720616374696F6E0D0A000098
:104A90005B414354494F4E5D205374617274696E9B
:104AA0006720616374696F6E206D6F64653A2025BD
:104AB000642C206475726174696F6E3A2025640DF0
:104AC0000A0000005B414354494F4E5D2053746F10
:104AD0007070696E672063757272656E74206163B1
:104AE00074696F6E0D0A00005B414354494F4E5D7F
:104AF0002052657374617274696E67206375727297
:104B0000656E7420616374696F6E2074696D65727F
:104B10000D0A00005B414354494F4E5D20416374D0
:104B2000696F6E2074696D656F75742C2073746F76
:104B30007070696E670D0A005B414354494F4E5DCA
:104B400020556E6B6E6F776E20616374696F6E2097
:104B50006D6F64653A2025640D0A0000F8B50024E5
:104B6000FFF7E6FCFFF7A6FC4FF480664FF44067C2
:104B700032461949384600F0DBFC174D0021082366
:104B8000802208460095FFF798FC00BFFDF7F8FA71
:104B9000A0421CD0041E09D00B2807D0FDF7DCFA78
:104BA000A8B1406898B132460B4902E032460A4942
:104BB000384600F0BDFCFFF77DFC642000F038FDB6
:104BC00000210823802208460095FFF776FC642028
:104BD00000F02EFDDAE70000BC00002008B500243C
:104BE000FDF792FA56A000F028FBFEF771F8014697
:104BF0005BA000F022FB60A000F01FFB63A000F0B0
:104C00001CFB6FA000F019FB012269467448FFF7F6
:104C100027F9744D287800283CD0002028709DF892
:104C20000000FDF7F5F9022806D040B101226946DF
:104C30006B48FFF715F9EDE7FDF7D2F9F6E79DF8B8
:104C4000001069A000F0F9FA9DF8001077294DD006
:104C50000CDC332936D004DC112927D0222911D1CC
:104C600029E0442933D066290CD13AE0BB2933D05E
:104C700004DC88293FD0992904D141E0CC2944D0D3
:104C8000DD2947D05EA000F0D8FA012269465448D9
:104C9000FFF7E6F8FDF77CFC001B43F698218842FD
:104CA0004AD9FDF7DFF9002839D045E05CA000F0D3
:104CB000C4FA012003E062A000F0BFFA0220FFF76F
:104CC0007BFDE2E765A000F0B8FA0320F7E76BA0F0
:104CD00000F0B3FA0420F2E771A000F0AEFA05206C
:104CE000EDE777A000F0A9FA0620E8E77BA000F046
:104CF000A4FA0720E3E781A000F09FFA0820DEE78E
:104D000086A000F09AFA0920D9E78CA000F095FA65
:104D10000A20D4E791A000F090FA0B20CFE7FDF72E
:104D200037FC044601F002FC0646FDF731FC014663
:104D3000324692A000F081FA0A2000F079FC69E77F
:104D40000D0A3D3D3D2055415254205461736B2066
:104D500053746172746564203D3D3D0D0A0000008E
:104D600053797374656D20436C6F636B3A20256CC7
:104D70007520487A0D0A0000426175642052617402
:104D8000653A203131353230300D0A0050726F747F
:104D90006F636F6C3A2053696E676C65206279743B
:104DA0006520636F6D6D616E642028307831312C21
:104DB00020307832322C202E2E2E290D0A000000B1
:104DC0003D3D3D3D3D3D3D3D3D3D3D3D3D3D3D3D13
:104DD0003D3D3D3D3D3D3D3D3D0D0A0D0A00000080
:104DE000F8050020000000205B52585D20526563EA
:104DF00065697665643A203078253032580D0A00AE
:104E00005B434D445D20556E6B6E6F776E20636F14
:104E10006D6D616E643A203078253032580D0A008D
:104E20005B434D445D2053656E64696E6720486145
:104E300070707920636F6D6D616E640D0A00000003
:104E40005B434D445D2053656E64696E672053611A
:104E50006420636F6D6D616E640D0A005B434D44A9
:104E60005D2053656E64696E6720416E67727920BC
:104E7000636F6D6D616E640D0A0000005B434D440D
:104E80005D2053656E64696E672053757270726938
:104E9000736520636F6D6D616E640D0A0000000024
:104EA0005B434D445D2053656E64696E67204C6FB3
:104EB000766520636F6D6D616E640D0A0000000001
:104EC0005B434D445D2053656E64696E6720536893
:104ED0007920636F6D6D616E640D0A005B434D4414
:104EE0005D2053656E64696E67204665617220635C
:104EF0006F6D6D616E640D0A000000005B434D44F0
:104F00005D2053656E64696E672052656C61782020
:104F1000636F6D6D616E640D0A0000005B434D446C
:104F20005D2053656E64696E6720457863697465BA
:104F30006420636F6D6D616E640D0A005B434D44C8
:104F40005D2053656E64696E6720446F776E2063E1
:104F50006F6D6D616E640D0A000000005B434D448F
:104F60005D2053656E64696E672053746F702063B3
:104F70006F6D6D616E640D0A000000005B5374611B
:104F80007475735D2055415254205461736B2052E7
:104F9000756E6E696E672C205469636B3A20256CC0
:104FA000752C204672656520486561703A2025752C
:104FB0000D0A000010B54FF0E020006901F04AFE34
:104FC000012803D0BDE8104001F00ABB10BD30B588
:104FD0008FB028216846FBF741FA14210AA8FBF795
:104FE0003DFA01210804CDE90010002402940225B5
:104FF0000491CDE907504FF4E01009906846FDF7A1
:105000008DFE08B172B6FEE70F20CDE90A054FF418
:105010008060CDE90C4002210AA80E94FDF714FD32
:10502000002801D072B6FEE70FB030BD7047000017
:105030000148FEF7C8BA000040060020F0B502683B
:10504000194B1A4C1A4D4FF08047984205D0B84280
:1050500003D0A04201D0A84203D122F070064A68D2
:105060003243984205D0B84203D0A04201D0A842B2
:1050700003D122F44074CA6822434C6922F08002B2
:10508000224302608A68C2620A688262984201D141
:1050900009690163012141610169C90703D00169FF
:1050A00021F001010161F0BD002C0140000400402D
:1050B0000008004010B501F01F030121046A994067
:1050C0008C430462016A9A401143016210BD0000E2
:1050D00030B5036A026A22F0010202624268846902
:1050E00024F073050C682C4323F002058B682B43D6
:1050F0000A4DA8420BD123F00805CB6822F4407278
:105100002B434D6923F0040315438A692A43426007
:10511000846149684163036230BD0000002C014096
:1051200030B5026A036A23F010030362436884699E
:105130000D6824F4E64444EA05248D6822F0200238
:1051400042EA05120B4DA8420ED1CD6822F0800232
:1051500042EA05124D6923F4406343EA85038D69F1
:1051600022F0400243EA8503436084614968816319
:10517000026230BD002C014030B5036A026A22F49D
:10518000807202624268C46923F4007324F07305DC
:105190000C682C438D6843EA05230C4DA8420ED1C0
:1051A000CD6823F4006343EA05234D6922F440529D
:1051B00042EA05128D6923F4806342EA05124260D7
:1051C000C4614968C163036230BD0000002C014026
:1051D00030B5046A026A22F4805202624268C369EE
:1051E0000D6823F4E64343EA05238D6824F4005454
:1051F00044EA0534064DA84204D14D6922F48042A8
:1052000042EA85124260C36149680164046230BDAC
:10521000002C014010B5406A0021C185C184FEF711
:1052200060FC10BD10B5406A0021C185202280F8C5
:1052300042200163FEF7ECFB10BD0FB400B5C1B016
:10524000FCF710FF00280DD143AB4FF48071684686
:10525000429AFBF75BF86846FBF772F881B2684642
:10526000FCF762FF41B05DF814FB01680C3151E8B6
:10527000002F22F4907241E80023002BF5D1016841
:10528000143151E8002F22F0010241E80023002BE5
:10529000F5D1016B012909D101680C3151E8002FCA
:1052A00022F0100241E80023002BF5D1202180F8E4
:1052B000421000210163704708B590F8421022297E
:1052C00001D0022008BD82684FF480539A4201D178
:1052D000016921B1816A9A421BD04AB10AE0026891
:1052E000816A5268C2F308020A80816A891C08E058
:1052F000026972B10268526802F07F020A70816A24
:10530000491C8162C18D491E0904090CC18503D065
:105310001BE002685268F1E70168CA6822F02002C7
:10532000CA600168CA6822F48072CA6001684A696A
:1053300022F001024A61202180F8421000214163DD
:10534000026B012A03D0FEF799FD002008BD01631E
:1053500001680C3151E8002F22F0100241E80023CF
:10536000002BF5D101680A68D20602D50A6849689F
:105370000091818DFEF74BFBE7E7000070B5044616
:1053800000680169E26821F440511143016121691B
:10539000A0680843616908432168CA6841F20C6348
:1053A0009A430243CA6020684169A26921F44071AE
:1053B000114341611E492068884202D1FDF778FC03
:1053C00001E0FDF765FC00EBC00101EB0012606835
:1053D00064218000B2FBF0F3B3FBF1F36FF0180629
:1053E0007343B2FBF0F5B2FBF0F605EB8305322315
:1053F00003EB0515B5FBF1F5B6FBF1F605F0F0058D
:1054000005EB0615B2FBF0F6B2FBF0F0B0FBF1F0E5
:105410006FF01802504306EB800003EB0010B0FB66
:10542000F1F0216800F00F002844886070BD000092
:105430000038014081628285C285002141642221B9
:1054400080F84210016921B10168CA6842F4807293
:10545000CA6001684A6942F001024A610068C16895
:1054600041F02001C160002070472DE9F8439846C3
:1054700017460D460446089E24E0701C22D0FDF716
:1054800087F8A0EB0800B0421AD8CEB12068C168F6
:10549000490717D5802D15D0402D13D00168C94379
:1054A00009070FD401680025406800902046FFF7E7
:1054B000DCFE0820606484F840500120BDE8F883D9
:1054C0000320FBE72068006835EA000004D00020D4
:1054D000B842D2D00020F1E70120F9E70148FEF7F9
:1054E00001BB0000F8050020FEE7000001221021AA
:1054F0000148FDF747B800000008014000221021D4
:105500000148FDF73FB800000008014001B582B036
:1055100000208DF8040064200090012301AA02A954
:105520000248FDF7C7FE9DF804000EBD10050020DF
:1055300070B515460E460446FFF7E0FF0320FFF75F
:10554000E5FFC4F30740FFF7E1FFC4F30720FFF7CF
:10555000DDFFE0B2FFF7DAFFAAB24FF4FA6331469B
:105560000348FDF7FDFDBDE87040FFF7BFBF000039
:1055700010050020490050EAC12018BF04204A0D40
:1055800018BF40F0010040F2FF72B2EB515F08BF5C
:1055900040F00200012808BF052070470907090EE6
:1055A000002804DB00F1E02080F80014704700F0D0
:1055B0000F0000F1E02080F8141D704730380A28F1
:1055C00001D201207047002070470000FDF778F9F4
:1055D000FFF7FDFCFEF742FEFEF780FEFEF79EFEA3
:1055E000FEF7C0FEFEF70EFFFEF746FF00210E4855
:1055F000FEF77CF904210C48FEF778F908210A48E7
:10560000FEF774F90C210848FEF770F900210748ED
:10561000FEF76CF9FCF780FD00F01EF8FEF7F6FDD2
:1056200000F02CF8FEE7000068050020B00500201F
:1056300010B5EFF3058111B16FF0050403E000240C
:1056400008B100F08DFE204610BDEFF3058008B1D3
:1056500001F014BB01F00CBBEFF3058010B16FF04B
:10566000050070470448016811B14FF0FF307047E2
:1056700001210160002070477400002010B5EFF395
:10568000058010B16FF0050010BD084801680129C0
:1056900002D04FF0FF3010BD054A002182F8141DE2
:1056A0000221016000F0C4FE002010BD7400002043
:1056B0000BE000E0F8B51D466FF003026FF0020644
:1056C0004FF00004EFF30583A3B1F0B1E9B1E5B900
:1056D000002200926A4601F0DDF9012817D10098F6
:1056E000B0B10C494FF080500860BFF34F8FBFF34B
:1056F0006F8F0DE048B141B12A4601F02FF9012822
:1057000006D025B16FF0010402E0144600E03446F3
:105710002046F8BD04ED00E0F8B514464FF0000552
:10572000EFF3058212BB08B301B3A4B1D4E902328E
:1057300063B1502A1AD32269C2B1676900FB01F62E
:10574000B74213D3009500F082FF07E072B92269D7
:1057500062B9626952B9002200F058FF050005D015
:105760000CB1216800E0002100F0C4FD2846F8BD1E
:10577000F8B51D466FF003026FF002064FF000040B
:10578000EFF30583ABB100B3F9B1F5B900221346CD
:1057900000926A4601F082F8012818D10098B8B149
:1057A0000C494FF080500860BFF34F8FBFF36F8FED
:1057B0000EE050B149B100232A4600F0BFFF012896
:1057C00006D025B16FF0010402E0144600E0344633
:1057D0002046F8BD04ED00E02DE9FF414FEA01034A
:1057E0004FF00005EFF30581039549BB40B38027D7
:1057F000182100244AB3166806B1344696691EB1D2
:105800003146761E382E02D21679F60703D00020D4
:1058100004B0BDE8F081566906B1B708D2F808C0F7
:10582000BCF1000F0DD0D5685C2D18D312693AB1C8
:1058300036B18DE806103A46214601F0E0F90390B2
:105840000DE0D6685EB912694AB903AACDE9001223
:10585000BAB2214601F0A6F9012800D003950398B9
:10586000D6E700002DE9F041134C0F460546E668E7
:105870002068001D00F040FC681C07D137B121688A
:10588000BDE8F0410D48091D00F086BC2068354494
:10589000B5424560216805D2A06BBDE8F041091D05
:1058A00000F062BC606B091D00F05EFCA06A8542DE
:1058B00000D2A562BDE8F08124000020780B002012
:1058C0002DE9F041054600F073FC2D4CA068401C0A
:1058D000A06020682B4F10B1606930B32BE02560C9
:1058E000A068012827D1002606EB860007EB800080
:1058F00000F02CFC761C382EF6D3234800F026FC52
:105900002148143000F022FC1F48283000F01EFC13
:105910001D483C3000F01AFC1B48503000F016FCCB
:10592000194860631430A06305E02068E96AC06A22
:10593000884200D82560606A401C60626864E86A3A
:105940002169884200D9206100EB800007EB8000CC
:10595000291D00F021FC00F04BFC606900280CD0F0
:105960002068E96AC06A884207D208494FF080502F
:105970000860BFF34F8FBFF36F8FBDE8F081000069
:1059800024000020C8060020280B002004ED00E0C1
:1059900038B500F00DFC104C2068C8B90F4800F075
:1059A000D5FB0E48143000F0D1FB0C48E0601430F9
:1059B00020610A4B0020F03B009003F150021021BF
:1059C0000A2000F044FE206010B105A100F092FC16
:1059D000BDE8384000F00CBC600000207C0C0020CA
:1059E000546D72510000000030B4026C0B46002A66
:1059F0000BD0C1681144C1608468A14201D3016821
:105A0000C16030BC1846FAF7BABC30BC70472DE90B
:105A1000F041856B174604460026026C82B1C7B17F
:105A2000E068FAF7ACFCE168206C091AE1602268D2
:105A3000914202D2A168081AE060022F16D017E046
:105A40002068A8B9A06801F085F906460020A0608A
:105A50000EE06068FAF793FC216C606808446060AF
:105A6000A168884204D32068606001E005B16D1E22
:105A70006D1CA5633046BDE8F08110B5044690F872
:105A8000590058B101280CD002280FD0502080F3C3
:105A90001188BFF34F8FBFF36F8FFEE7206B00F0CD
:105AA000BBFB2046BDE8104000F0B6BB10BD0000B7
:105AB00010484FF44061420706D0C01D0D4920F048
:105AC0000700411AC1F540610B4A00230144C2E9B5
:105AD00000030839183A21F0070111604B600B6090
